{
  "_format": "hh-sol-artifact-1",
  "contractName": "Web3Mint",
  "sourceName": "contracts/Web3Mint.sol",
  "abi": [
    {
      "inputs": [],
      "stateMutability": "nonpayable",
      "type": "constructor"
    },
    {
      "anonymous": false,
      "inputs": [
        {
          "indexed": true,
          "internalType": "address",
          "name": "owner",
          "type": "address"
        },
        {
          "indexed": true,
          "internalType": "address",
          "name": "approved",
          "type": "address"
        },
        {
          "indexed": true,
          "internalType": "uint256",
          "name": "tokenId",
          "type": "uint256"
        }
      ],
      "name": "Approval",
      "type": "event"
    },
    {
      "anonymous": false,
      "inputs": [
        {
          "indexed": true,
          "internalType": "address",
          "name": "owner",
          "type": "address"
        },
        {
          "indexed": true,
          "internalType": "address",
          "name": "operator",
          "type": "address"
        },
        {
          "indexed": false,
          "internalType": "bool",
          "name": "approved",
          "type": "bool"
        }
      ],
      "name": "ApprovalForAll",
      "type": "event"
    },
    {
      "anonymous": false,
      "inputs": [
        {
          "indexed": true,
          "internalType": "address",
          "name": "from",
          "type": "address"
        },
        {
          "indexed": true,
          "internalType": "address",
          "name": "to",
          "type": "address"
        },
        {
          "indexed": true,
          "internalType": "uint256",
          "name": "tokenId",
          "type": "uint256"
        }
      ],
      "name": "Transfer",
      "type": "event"
    },
    {
      "inputs": [],
      "name": "MAX_SUPPLY",
      "outputs": [
        {
          "internalType": "uint256",
          "name": "",
          "type": "uint256"
        }
      ],
      "stateMutability": "view",
      "type": "function"
    },
    {
      "inputs": [
        {
          "internalType": "address",
          "name": "to",
          "type": "address"
        },
        {
          "internalType": "uint256",
          "name": "tokenId",
          "type": "uint256"
        }
      ],
      "name": "approve",
      "outputs": [],
      "stateMutability": "nonpayable",
      "type": "function"
    },
    {
      "inputs": [
        {
          "internalType": "address",
          "name": "owner",
          "type": "address"
        }
      ],
      "name": "balanceOf",
      "outputs": [
        {
          "internalType": "uint256",
          "name": "",
          "type": "uint256"
        }
      ],
      "stateMutability": "view",
      "type": "function"
    },
    {
      "inputs": [
        {
          "internalType": "uint256",
          "name": "tokenId",
          "type": "uint256"
        }
      ],
      "name": "getApproved",
      "outputs": [
        {
          "internalType": "address",
          "name": "",
          "type": "address"
        }
      ],
      "stateMutability": "view",
      "type": "function"
    },
    {
      "inputs": [
        {
          "internalType": "address",
          "name": "owner",
          "type": "address"
        },
        {
          "internalType": "address",
          "name": "operator",
          "type": "address"
        }
      ],
      "name": "isApprovedForAll",
      "outputs": [
        {
          "internalType": "bool",
          "name": "",
          "type": "bool"
        }
      ],
      "stateMutability": "view",
      "type": "function"
    },
    {
      "inputs": [
        {
          "internalType": "string",
          "name": "name",
          "type": "string"
        },
        {
          "internalType": "string",
          "name": "imageURI",
          "type": "string"
        }
      ],
      "name": "mintIpfsNFT",
      "outputs": [],
      "stateMutability": "nonpayable",
      "type": "function"
    },
    {
      "inputs": [],
      "name": "name",
      "outputs": [
        {
          "internalType": "string",
          "name": "",
          "type": "string"
        }
      ],
      "stateMutability": "view",
      "type": "function"
    },
    {
      "inputs": [
        {
          "internalType": "uint256",
          "name": "tokenId",
          "type": "uint256"
        }
      ],
      "name": "ownerOf",
      "outputs": [
        {
          "internalType": "address",
          "name": "",
          "type": "address"
        }
      ],
      "stateMutability": "view",
      "type": "function"
    },
    {
      "inputs": [
        {
          "internalType": "address",
          "name": "from",
          "type": "address"
        },
        {
          "internalType": "address",
          "name": "to",
          "type": "address"
        },
        {
          "internalType": "uint256",
          "name": "tokenId",
          "type": "uint256"
        }
      ],
      "name": "safeTransferFrom",
      "outputs": [],
      "stateMutability": "nonpayable",
      "type": "function"
    },
    {
      "inputs": [
        {
          "internalType": "address",
          "name": "from",
          "type": "address"
        },
        {
          "internalType": "address",
          "name": "to",
          "type": "address"
        },
        {
          "internalType": "uint256",
          "name": "tokenId",
          "type": "uint256"
        },
        {
          "internalType": "bytes",
          "name": "data",
          "type": "bytes"
        }
      ],
      "name": "safeTransferFrom",
      "outputs": [],
      "stateMutability": "nonpayable",
      "type": "function"
    },
    {
      "inputs": [
        {
          "internalType": "address",
          "name": "operator",
          "type": "address"
        },
        {
          "internalType": "bool",
          "name": "approved",
          "type": "bool"
        }
      ],
      "name": "setApprovalForAll",
      "outputs": [],
      "stateMutability": "nonpayable",
      "type": "function"
    },
    {
      "inputs": [
        {
          "internalType": "bytes4",
          "name": "interfaceId",
          "type": "bytes4"
        }
      ],
      "name": "supportsInterface",
      "outputs": [
        {
          "internalType": "bool",
          "name": "",
          "type": "bool"
        }
      ],
      "stateMutability": "view",
      "type": "function"
    },
    {
      "inputs": [],
      "name": "symbol",
      "outputs": [
        {
          "internalType": "string",
          "name": "",
          "type": "string"
        }
      ],
      "stateMutability": "view",
      "type": "function"
    },
    {
      "inputs": [
        {
          "internalType": "uint256",
          "name": "_tokenId",
          "type": "uint256"
        }
      ],
      "name": "tokenURI",
      "outputs": [
        {
          "internalType": "string",
          "name": "",
          "type": "string"
        }
      ],
      "stateMutability": "view",
      "type": "function"
    },
    {
      "inputs": [],
      "name": "totalSupply",
      "outputs": [
        {
          "internalType": "uint256",
          "name": "",
          "type": "uint256"
        }
      ],
      "stateMutability": "view",
      "type": "function"
    },
    {
      "inputs": [
        {
          "internalType": "address",
          "name": "from",
          "type": "address"
        },
        {
          "internalType": "address",
          "name": "to",
          "type": "address"
        },
        {
          "internalType": "uint256",
          "name": "tokenId",
          "type": "uint256"
        }
      ],
      "name": "transferFrom",
      "outputs": [],
      "stateMutability": "nonpayable",
      "type": "function"
    }
  ],
  "bytecode": "0x60806040523480156200001157600080fd5b506040518060400160405280600381526020017f4e465400000000000000000000000000000000000000000000000000000000008152506040518060400160405280600381526020017f6e6674000000000000000000000000000000000000000000000000000000000081525081600090816200008f91906200043b565b508060019081620000a191906200043b565b505050620000ef6040518060400160405280601881526020017f54686973206973206d79204e465420636f6e74726163742e0000000000000000815250620000f560201b62000b321760201c565b620005d5565b62000195816040516024016200010c9190620005b1565b6040516020818303038152906040527f41304fac000000000000000000000000000000000000000000000000000000007bffffffffffffffffffffffffffffffffffffffffffffffffffffffff19166020820180517bffffffffffffffffffffffffffffffffffffffffffffffffffffffff83818316178352505050506200019860201b60201c565b50565b60008151905060006a636f6e736f6c652e6c6f679050602083016000808483855afa5050505050565b600081519050919050565b7f4e487b7100000000000000000000000000000000000000000000000000000000600052604160045260246000fd5b7f4e487b7100000000000000000000000000000000000000000000000000000000600052602260045260246000fd5b600060028204905060018216806200024357607f821691505b602082108103620002595762000258620001fb565b5b50919050565b60008190508160005260206000209050919050565b60006020601f8301049050919050565b600082821b905092915050565b600060088302620002c37fffffffffffffffffffffffffffffffffffffffffffffffffffffffffffffffff8262000284565b620002cf868362000284565b95508019841693508086168417925050509392505050565b6000819050919050565b6000819050919050565b60006200031c620003166200031084620002e7565b620002f1565b620002e7565b9050919050565b6000819050919050565b6200033883620002fb565b62000350620003478262000323565b84845462000291565b825550505050565b600090565b6200036762000358565b620003748184846200032d565b505050565b5b818110156200039c57620003906000826200035d565b6001810190506200037a565b5050565b601f821115620003eb57620003b5816200025f565b620003c08462000274565b81016020851015620003d0578190505b620003e8620003df8562000274565b83018262000379565b50505b505050565b600082821c905092915050565b60006200041060001984600802620003f0565b1980831691505092915050565b60006200042b8383620003fd565b9150826002028217905092915050565b6200044682620001c1565b67ffffffffffffffff811115620004625762000461620001cc565b5b6200046e82546200022a565b6200047b828285620003a0565b600060209050601f831160018114620004b357600084156200049e578287015190505b620004aa85826200041d565b8655506200051a565b601f198416620004c3866200025f565b60005b82811015620004ed57848901518255600182019150602085019450602081019050620004c6565b868310156200050d578489015162000509601f891682620003fd565b8355505b6001600288020188555050505b505050505050565b600082825260208201905092915050565b60005b838110156200055357808201518184015260208101905062000536565b60008484015250505050565b6000601f19601f8301169050919050565b60006200057d82620001c1565b62000589818562000522565b93506200059b81856020860162000533565b620005a6816200055f565b840191505092915050565b60006020820190508181036000830152620005cd818462000570565b905092915050565b6131a080620005e56000396000f3fe608060405234801561001057600080fd5b50600436106101005760003560e01c80636352211e11610097578063b88d4fde11610066578063b88d4fde146102ad578063c87b56dd146102c9578063e985e9c5146102f9578063eb00195d1461032957610100565b80636352211e1461021357806370a082311461024357806395d89b4114610273578063a22cb4651461029157610100565b806318160ddd116100d357806318160ddd1461019f57806323b872dd146101bd57806332cb6b0c146101d957806342842e0e146101f757610100565b806301ffc9a71461010557806306fdde0314610135578063081812fc14610153578063095ea7b314610183575b600080fd5b61011f600480360381019061011a9190611c71565b610345565b60405161012c9190611cb9565b60405180910390f35b61013d610427565b60405161014a9190611d64565b60405180910390f35b61016d60048036038101906101689190611dbc565b6104b9565b60405161017a9190611e2a565b60405180910390f35b61019d60048036038101906101989190611e71565b6104ff565b005b6101a7610616565b6040516101b49190611ec0565b60405180910390f35b6101d760048036038101906101d29190611edb565b610627565b005b6101e1610687565b6040516101ee9190611ec0565b60405180910390f35b610211600480360381019061020c9190611edb565b61068c565b005b61022d60048036038101906102289190611dbc565b6106ac565b60405161023a9190611e2a565b60405180910390f35b61025d60048036038101906102589190611f2e565b610732565b60405161026a9190611ec0565b60405180910390f35b61027b6107e9565b6040516102889190611d64565b60405180910390f35b6102ab60048036038101906102a69190611f87565b61087b565b005b6102c760048036038101906102c291906120fc565b610891565b005b6102e360048036038101906102de9190611dbc565b6108f3565b6040516102f09190611d64565b60405180910390f35b610313600480360381019061030e919061217f565b6109a3565b6040516103209190611cb9565b60405180910390f35b610343600480360381019061033e9190612260565b610a37565b005b60007f80ac58cd000000000000000000000000000000000000000000000000000000007bffffffffffffffffffffffffffffffffffffffffffffffffffffffff1916827bffffffffffffffffffffffffffffffffffffffffffffffffffffffff1916148061041057507f5b5e139f000000000000000000000000000000000000000000000000000000007bffffffffffffffffffffffffffffffffffffffffffffffffffffffff1916827bffffffffffffffffffffffffffffffffffffffffffffffffffffffff1916145b80610420575061041f82610bcb565b5b9050919050565b60606000805461043690612307565b80601f016020809104026020016040519081016040528092919081815260200182805461046290612307565b80156104af5780601f10610484576101008083540402835291602001916104af565b820191906000526020600020905b81548152906001019060200180831161049257829003601f168201915b5050505050905090565b60006104c482610c35565b6004600083815260200190815260200160002060009054906101000a900473ffffffffffffffffffffffffffffffffffffffff169050919050565b600061050a826106ac565b90508073ffffffffffffffffffffffffffffffffffffffff168373ffffffffffffffffffffffffffffffffffffffff160361057a576040517f08c379a0000000000000000000000000000000000000000000000000000000008152600401610571906123aa565b60405180910390fd5b8073ffffffffffffffffffffffffffffffffffffffff16610599610c80565b73ffffffffffffffffffffffffffffffffffffffff1614806105c857506105c7816105c2610c80565b6109a3565b5b610607576040517f08c379a00000000000000000000000000000000000000000000000000000000081526004016105fe9061243c565b60405180910390fd5b6106118383610c88565b505050565b60006106226007610d41565b905090565b610638610632610c80565b82610d4f565b610677576040517f08c379a000000000000000000000000000000000000000000000000000000000815260040161066e906124ce565b60405180910390fd5b610682838383610de4565b505050565b603281565b6106a783838360405180602001604052806000815250610891565b505050565b6000806106b8836110dd565b9050600073ffffffffffffffffffffffffffffffffffffffff168173ffffffffffffffffffffffffffffffffffffffff1603610729576040517f08c379a00000000000000000000000000000000000000000000000000000000081526004016107209061253a565b60405180910390fd5b80915050919050565b60008073ffffffffffffffffffffffffffffffffffffffff168273ffffffffffffffffffffffffffffffffffffffff16036107a2576040517f08c379a0000000000000000000000000000000000000000000000000000000008152600401610799906125cc565b60405180910390fd5b600360008373ffffffffffffffffffffffffffffffffffffffff1673ffffffffffffffffffffffffffffffffffffffff168152602001908152602001600020549050919050565b6060600180546107f890612307565b80601f016020809104026020016040519081016040528092919081815260200182805461082490612307565b80156108715780601f1061084657610100808354040283529160200191610871565b820191906000526020600020905b81548152906001019060200180831161085457829003601f168201915b5050505050905090565b61088d610886610c80565b838361111a565b5050565b6108a261089c610c80565b83610d4f565b6108e1576040517f08c379a00000000000000000000000000000000000000000000000000000000081526004016108d8906124ce565b60405180910390fd5b6108ed84848484611286565b50505050565b606060006109736006848154811061090e5761090d6125ec565b5b9060005260206000209060020201600001610928856112e2565b6006868154811061093c5761093b6125ec565b5b906000526020600020906002020160010160405160200161095f93929190612845565b6040516020818303038152906040526113b0565b905060008160405160200161098891906128ee565b60405160208183030381529060405290508092505050919050565b6000600560008473ffffffffffffffffffffffffffffffffffffffff1673ffffffffffffffffffffffffffffffffffffffff16815260200190815260200160002060008373ffffffffffffffffffffffffffffffffffffffff1673ffffffffffffffffffffffffffffffffffffffff16815260200190815260200160002060009054906101000a900460ff16905092915050565b6000610a436007610d41565b905060328110610a88576040517f08c379a0000000000000000000000000000000000000000000000000000000008152600401610a7f9061295c565b60405180910390fd5b610a923382611547565b600660405180604001604052808581526020018481525090806001815401808255809150506001900390600052602060002090600202016000909190919091506000820151816000019081610ae79190612b13565b506020820151816001019081610afd9190612b13565b505050610b23604051806060016040528060258152602001613106602591398233611565565b610b2d6007611604565b505050565b610bc881604051602401610b469190611d64565b6040516020818303038152906040527f41304fac000000000000000000000000000000000000000000000000000000007bffffffffffffffffffffffffffffffffffffffffffffffffffffffff19166020820180517bffffffffffffffffffffffffffffffffffffffffffffffffffffffff838183161783525050505061161a565b50565b60007f01ffc9a7000000000000000000000000000000000000000000000000000000007bffffffffffffffffffffffffffffffffffffffffffffffffffffffff1916827bffffffffffffffffffffffffffffffffffffffffffffffffffffffff1916149050919050565b610c3e81611643565b610c7d576040517f08c379a0000000000000000000000000000000000000000000000000000000008152600401610c749061253a565b60405180910390fd5b50565b600033905090565b816004600083815260200190815260200160002060006101000a81548173ffffffffffffffffffffffffffffffffffffffff021916908373ffffffffffffffffffffffffffffffffffffffff160217905550808273ffffffffffffffffffffffffffffffffffffffff16610cfb836106ac565b73ffffffffffffffffffffffffffffffffffffffff167f8c5be1e5ebec7d5bd14f71427d1e84f3dd0314c0f7b2291e5b200ac8c7c3b92560405160405180910390a45050565b600081600001549050919050565b600080610d5b836106ac565b90508073ffffffffffffffffffffffffffffffffffffffff168473ffffffffffffffffffffffffffffffffffffffff161480610d9d5750610d9c81856109a3565b5b80610ddb57508373ffffffffffffffffffffffffffffffffffffffff16610dc3846104b9565b73ffffffffffffffffffffffffffffffffffffffff16145b91505092915050565b8273ffffffffffffffffffffffffffffffffffffffff16610e04826106ac565b73ffffffffffffffffffffffffffffffffffffffff1614610e5a576040517f08c379a0000000000000000000000000000000000000000000000000000000008152600401610e5190612c57565b60405180910390fd5b600073ffffffffffffffffffffffffffffffffffffffff168273ffffffffffffffffffffffffffffffffffffffff1603610ec9576040517f08c379a0000000000000000000000000000000000000000000000000000000008152600401610ec090612ce9565b60405180910390fd5b610ed68383836001611684565b8273ffffffffffffffffffffffffffffffffffffffff16610ef6826106ac565b73ffffffffffffffffffffffffffffffffffffffff1614610f4c576040517f08c379a0000000000000000000000000000000000000000000000000000000008152600401610f4390612c57565b60405180910390fd5b6004600082815260200190815260200160002060006101000a81549073ffffffffffffffffffffffffffffffffffffffff02191690556001600360008573ffffffffffffffffffffffffffffffffffffffff1673ffffffffffffffffffffffffffffffffffffffff168152602001908152602001600020600082825403925050819055506001600360008473ffffffffffffffffffffffffffffffffffffffff1673ffffffffffffffffffffffffffffffffffffffff16815260200190815260200160002060008282540192505081905550816002600083815260200190815260200160002060006101000a81548173ffffffffffffffffffffffffffffffffffffffff021916908373ffffffffffffffffffffffffffffffffffffffff160217905550808273ffffffffffffffffffffffffffffffffffffffff168473ffffffffffffffffffffffffffffffffffffffff167fddf252ad1be2c89b69c2b068fc378daa952ba7f163c4a11628f55a4df523b3ef60405160405180910390a46110d8838383600161168a565b505050565b60006002600083815260200190815260200160002060009054906101000a900473ffffffffffffffffffffffffffffffffffffffff169050919050565b8173ffffffffffffffffffffffffffffffffffffffff168373ffffffffffffffffffffffffffffffffffffffff1603611188576040517f08c379a000000000000000000000000000000000000000000000000000000000815260040161117f90612d55565b60405180910390fd5b80600560008573ffffffffffffffffffffffffffffffffffffffff1673ffffffffffffffffffffffffffffffffffffffff16815260200190815260200160002060008473ffffffffffffffffffffffffffffffffffffffff1673ffffffffffffffffffffffffffffffffffffffff16815260200190815260200160002060006101000a81548160ff0219169083151502179055508173ffffffffffffffffffffffffffffffffffffffff168373ffffffffffffffffffffffffffffffffffffffff167f17307eab39ab6107e8899845ad3d59bd9653f200f220920489ca2b5937696c31836040516112799190611cb9565b60405180910390a3505050565b611291848484610de4565b61129d84848484611690565b6112dc576040517f08c379a00000000000000000000000000000000000000000000000000000000081526004016112d390612de7565b60405180910390fd5b50505050565b6060600060016112f184611817565b01905060008167ffffffffffffffff8111156113105761130f611fd1565b5b6040519080825280601f01601f1916602001820160405280156113425781602001600182028036833780820191505090505b509050600082602001820190505b6001156113a5578080600190039150507f3031323334353637383961626364656600000000000000000000000000000000600a86061a8153600a858161139957611398612e07565b5b04945060008503611350575b819350505050919050565b6060600082519050600081036113d85760405180602001604052806000815250915050611542565b600060036002836113e99190612e65565b6113f39190612e99565b60046113ff9190612eca565b905060006020826114109190612e65565b67ffffffffffffffff81111561142957611428611fd1565b5b6040519080825280601f01601f19166020018201604052801561145b5781602001600182028036833780820191505090505b509050600060405180606001604052806040815260200161312b604091399050600181016020830160005b868110156114ff5760038101905062ffffff818a015116603f8160121c168401518060081b905060ff603f83600c1c1686015116810190508060081b905060ff603f8360061c1686015116810190508060081b905060ff603f831686015116810190508060e01b90508084526004840193505050611486565b506003860660018114611519576002811461152957611534565b613d3d60f01b6002830352611534565b603d60f81b60018303525b508484525050819450505050505b919050565b61156182826040518060200160405280600081525061196a565b5050565b6115ff83838360405160240161157d93929190612f0c565b6040516020818303038152906040527f1c7ec448000000000000000000000000000000000000000000000000000000007bffffffffffffffffffffffffffffffffffffffffffffffffffffffff19166020820180517bffffffffffffffffffffffffffffffffffffffffffffffffffffffff838183161783525050505061161a565b505050565b6001816000016000828254019250508190555050565b60008151905060006a636f6e736f6c652e6c6f679050602083016000808483855afa5050505050565b60008073ffffffffffffffffffffffffffffffffffffffff16611665836110dd565b73ffffffffffffffffffffffffffffffffffffffff1614159050919050565b50505050565b50505050565b60006116b18473ffffffffffffffffffffffffffffffffffffffff166119c5565b1561180a578373ffffffffffffffffffffffffffffffffffffffff1663150b7a026116da610c80565b8786866040518563ffffffff1660e01b81526004016116fc9493929190612f9f565b6020604051808303816000875af192505050801561173857506040513d601f19601f820116820180604052508101906117359190613000565b60015b6117ba573d8060008114611768576040519150601f19603f3d011682016040523d82523d6000602084013e61176d565b606091505b5060008151036117b2576040517f08c379a00000000000000000000000000000000000000000000000000000000081526004016117a990612de7565b60405180910390fd5b805181602001fd5b63150b7a0260e01b7bffffffffffffffffffffffffffffffffffffffffffffffffffffffff1916817bffffffffffffffffffffffffffffffffffffffffffffffffffffffff19161491505061180f565b600190505b949350505050565b600080600090507a184f03e93ff9f4daa797ed6e38ed64bf6a1f0100000000000000008310611875577a184f03e93ff9f4daa797ed6e38ed64bf6a1f010000000000000000838161186b5761186a612e07565b5b0492506040810190505b6d04ee2d6d415b85acef810000000083106118b2576d04ee2d6d415b85acef810000000083816118a8576118a7612e07565b5b0492506020810190505b662386f26fc1000083106118e157662386f26fc1000083816118d7576118d6612e07565b5b0492506010810190505b6305f5e100831061190a576305f5e1008381611900576118ff612e07565b5b0492506008810190505b612710831061192f57612710838161192557611924612e07565b5b0492506004810190505b60648310611952576064838161194857611947612e07565b5b0492506002810190505b600a8310611961576001810190505b80915050919050565b61197483836119e8565b6119816000848484611690565b6119c0576040517f08c379a00000000000000000000000000000000000000000000000000000000081526004016119b790612de7565b60405180910390fd5b505050565b6000808273ffffffffffffffffffffffffffffffffffffffff163b119050919050565b600073ffffffffffffffffffffffffffffffffffffffff168273ffffffffffffffffffffffffffffffffffffffff1603611a57576040517f08c379a0000000000000000000000000000000000000000000000000000000008152600401611a4e90613079565b60405180910390fd5b611a6081611643565b15611aa0576040517f08c379a0000000000000000000000000000000000000000000000000000000008152600401611a97906130e5565b60405180910390fd5b611aae600083836001611684565b611ab781611643565b15611af7576040517f08c379a0000000000000000000000000000000000000000000000000000000008152600401611aee906130e5565b60405180910390fd5b6001600360008473ffffffffffffffffffffffffffffffffffffffff1673ffffffffffffffffffffffffffffffffffffffff16815260200190815260200160002060008282540192505081905550816002600083815260200190815260200160002060006101000a81548173ffffffffffffffffffffffffffffffffffffffff021916908373ffffffffffffffffffffffffffffffffffffffff160217905550808273ffffffffffffffffffffffffffffffffffffffff16600073ffffffffffffffffffffffffffffffffffffffff167fddf252ad1be2c89b69c2b068fc378daa952ba7f163c4a11628f55a4df523b3ef60405160405180910390a4611c0160008383600161168a565b5050565b6000604051905090565b600080fd5b600080fd5b60007fffffffff0000000000000000000000000000000000000000000000000000000082169050919050565b611c4e81611c19565b8114611c5957600080fd5b50565b600081359050611c6b81611c45565b92915050565b600060208284031215611c8757611c86611c0f565b5b6000611c9584828501611c5c565b91505092915050565b60008115159050919050565b611cb381611c9e565b82525050565b6000602082019050611cce6000830184611caa565b92915050565b600081519050919050565b600082825260208201905092915050565b60005b83811015611d0e578082015181840152602081019050611cf3565b60008484015250505050565b6000601f19601f8301169050919050565b6000611d3682611cd4565b611d408185611cdf565b9350611d50818560208601611cf0565b611d5981611d1a565b840191505092915050565b60006020820190508181036000830152611d7e8184611d2b565b905092915050565b6000819050919050565b611d9981611d86565b8114611da457600080fd5b50565b600081359050611db681611d90565b92915050565b600060208284031215611dd257611dd1611c0f565b5b6000611de084828501611da7565b91505092915050565b600073ffffffffffffffffffffffffffffffffffffffff82169050919050565b6000611e1482611de9565b9050919050565b611e2481611e09565b82525050565b6000602082019050611e3f6000830184611e1b565b92915050565b611e4e81611e09565b8114611e5957600080fd5b50565b600081359050611e6b81611e45565b92915050565b60008060408385031215611e8857611e87611c0f565b5b6000611e9685828601611e5c565b9250506020611ea785828601611da7565b9150509250929050565b611eba81611d86565b82525050565b6000602082019050611ed56000830184611eb1565b92915050565b600080600060608486031215611ef457611ef3611c0f565b5b6000611f0286828701611e5c565b9350506020611f1386828701611e5c565b9250506040611f2486828701611da7565b9150509250925092565b600060208284031215611f4457611f43611c0f565b5b6000611f5284828501611e5c565b91505092915050565b611f6481611c9e565b8114611f6f57600080fd5b50565b600081359050611f8181611f5b565b92915050565b60008060408385031215611f9e57611f9d611c0f565b5b6000611fac85828601611e5c565b9250506020611fbd85828601611f72565b9150509250929050565b600080fd5b600080fd5b7f4e487b7100000000000000000000000000000000000000000000000000000000600052604160045260246000fd5b61200982611d1a565b810181811067ffffffffffffffff8211171561202857612027611fd1565b5b80604052505050565b600061203b611c05565b90506120478282612000565b919050565b600067ffffffffffffffff82111561206757612066611fd1565b5b61207082611d1a565b9050602081019050919050565b82818337600083830152505050565b600061209f61209a8461204c565b612031565b9050828152602081018484840111156120bb576120ba611fcc565b5b6120c684828561207d565b509392505050565b600082601f8301126120e3576120e2611fc7565b5b81356120f384826020860161208c565b91505092915050565b6000806000806080858703121561211657612115611c0f565b5b600061212487828801611e5c565b945050602061213587828801611e5c565b935050604061214687828801611da7565b925050606085013567ffffffffffffffff81111561216757612166611c14565b5b612173878288016120ce565b91505092959194509250565b6000806040838503121561219657612195611c0f565b5b60006121a485828601611e5c565b92505060206121b585828601611e5c565b9150509250929050565b600067ffffffffffffffff8211156121da576121d9611fd1565b5b6121e382611d1a565b9050602081019050919050565b60006122036121fe846121bf565b612031565b90508281526020810184848401111561221f5761221e611fcc565b5b61222a84828561207d565b509392505050565b600082601f83011261224757612246611fc7565b5b81356122578482602086016121f0565b91505092915050565b6000806040838503121561227757612276611c0f565b5b600083013567ffffffffffffffff81111561229557612294611c14565b5b6122a185828601612232565b925050602083013567ffffffffffffffff8111156122c2576122c1611c14565b5b6122ce85828601612232565b9150509250929050565b7f4e487b7100000000000000000000000000000000000000000000000000000000600052602260045260246000fd5b6000600282049050600182168061231f57607f821691505b602082108103612332576123316122d8565b5b50919050565b7f4552433732313a20617070726f76616c20746f2063757272656e74206f776e6560008201527f7200000000000000000000000000000000000000000000000000000000000000602082015250565b6000612394602183611cdf565b915061239f82612338565b604082019050919050565b600060208201905081810360008301526123c381612387565b9050919050565b7f4552433732313a20617070726f76652063616c6c6572206973206e6f7420746f60008201527f6b656e206f776e6572206f7220617070726f76656420666f7220616c6c000000602082015250565b6000612426603d83611cdf565b9150612431826123ca565b604082019050919050565b6000602082019050818103600083015261245581612419565b9050919050565b7f4552433732313a2063616c6c6572206973206e6f7420746f6b656e206f776e6560008201527f72206f7220617070726f76656400000000000000000000000000000000000000602082015250565b60006124b8602d83611cdf565b91506124c38261245c565b604082019050919050565b600060208201905081810360008301526124e7816124ab565b9050919050565b7f4552433732313a20696e76616c696420746f6b656e2049440000000000000000600082015250565b6000612524601883611cdf565b915061252f826124ee565b602082019050919050565b6000602082019050818103600083015261255381612517565b9050919050565b7f4552433732313a2061646472657373207a65726f206973206e6f74206120766160008201527f6c6964206f776e65720000000000000000000000000000000000000000000000602082015250565b60006125b6602983611cdf565b91506125c18261255a565b604082019050919050565b600060208201905081810360008301526125e5816125a9565b9050919050565b7f4e487b7100000000000000000000000000000000000000000000000000000000600052603260045260246000fd5b600081905092915050565b7f7b226e616d65223a202200000000000000000000000000000000000000000000600082015250565b600061265c600a8361261b565b915061266782612626565b600a82019050919050565b60008190508160005260206000209050919050565b6000815461269481612307565b61269e818661261b565b945060018216600081146126b957600181146126ce57612701565b60ff1983168652811515820286019350612701565b6126d785612672565b60005b838110156126f9578154818901526001820191506020810190506126da565b838801955050505b50505092915050565b7f202d2d204e465420233a20000000000000000000000000000000000000000000600082015250565b6000612740600b8361261b565b915061274b8261270a565b600b82019050919050565b600061276182611cd4565b61276b818561261b565b935061277b818560208601611cf0565b80840191505092915050565b7f222c20226465736372697074696f6e223a2022416e2065706963204e4654222c60008201527f2022696d616765223a2022697066733a2f2f0000000000000000000000000000602082015250565b60006127e360328361261b565b91506127ee82612787565b603282019050919050565b7f227d000000000000000000000000000000000000000000000000000000000000600082015250565b600061282f60028361261b565b915061283a826127f9565b600282019050919050565b60006128508261264f565b915061285c8286612687565b915061286782612733565b91506128738285612756565b915061287e826127d6565b915061288a8284612687565b915061289582612822565b9150819050949350505050565b7f646174613a6170706c69636174696f6e2f6a736f6e3b6261736536342c000000600082015250565b60006128d8601d8361261b565b91506128e3826128a2565b601d82019050919050565b60006128f9826128cb565b91506129058284612756565b915081905092915050565b7f45786365656473206d617820737570706c792e00000000000000000000000000600082015250565b6000612946601383611cdf565b915061295182612910565b602082019050919050565b6000602082019050818103600083015261297581612939565b9050919050565b60006020601f8301049050919050565b600082821b905092915050565b6000600883026129c97fffffffffffffffffffffffffffffffffffffffffffffffffffffffffffffffff8261298c565b6129d3868361298c565b95508019841693508086168417925050509392505050565b6000819050919050565b6000612a10612a0b612a0684611d86565b6129eb565b611d86565b9050919050565b6000819050919050565b612a2a836129f5565b612a3e612a3682612a17565b848454612999565b825550505050565b600090565b612a53612a46565b612a5e818484612a21565b505050565b5b81811015612a8257612a77600082612a4b565b600181019050612a64565b5050565b601f821115612ac757612a9881612672565b612aa18461297c565b81016020851015612ab0578190505b612ac4612abc8561297c565b830182612a63565b50505b505050565b600082821c905092915050565b6000612aea60001984600802612acc565b1980831691505092915050565b6000612b038383612ad9565b9150826002028217905092915050565b612b1c82611cd4565b67ffffffffffffffff811115612b3557612b34611fd1565b5b612b3f8254612307565b612b4a828285612a86565b600060209050601f831160018114612b7d5760008415612b6b578287015190505b612b758582612af7565b865550612bdd565b601f198416612b8b86612672565b60005b82811015612bb357848901518255600182019150602085019450602081019050612b8e565b86831015612bd05784890151612bcc601f891682612ad9565b8355505b6001600288020188555050505b505050505050565b7f4552433732313a207472616e736665722066726f6d20696e636f72726563742060008201527f6f776e6572000000000000000000000000000000000000000000000000000000602082015250565b6000612c41602583611cdf565b9150612c4c82612be5565b604082019050919050565b60006020820190508181036000830152612c7081612c34565b9050919050565b7f4552433732313a207472616e7366657220746f20746865207a65726f2061646460008201527f7265737300000000000000000000000000000000000000000000000000000000602082015250565b6000612cd3602483611cdf565b9150612cde82612c77565b604082019050919050565b60006020820190508181036000830152612d0281612cc6565b9050919050565b7f4552433732313a20617070726f766520746f2063616c6c657200000000000000600082015250565b6000612d3f601983611cdf565b9150612d4a82612d09565b602082019050919050565b60006020820190508181036000830152612d6e81612d32565b9050919050565b7f4552433732313a207472616e7366657220746f206e6f6e20455243373231526560008201527f63656976657220696d706c656d656e7465720000000000000000000000000000602082015250565b6000612dd1603283611cdf565b9150612ddc82612d75565b604082019050919050565b60006020820190508181036000830152612e0081612dc4565b9050919050565b7f4e487b7100000000000000000000000000000000000000000000000000000000600052601260045260246000fd5b7f4e487b7100000000000000000000000000000000000000000000000000000000600052601160045260246000fd5b6000612e7082611d86565b9150612e7b83611d86565b9250828201905080821115612e9357612e92612e36565b5b92915050565b6000612ea482611d86565b9150612eaf83611d86565b925082612ebf57612ebe612e07565b5b828204905092915050565b6000612ed582611d86565b9150612ee083611d86565b9250828202612eee81611d86565b91508282048414831517612f0557612f04612e36565b5b5092915050565b60006060820190508181036000830152612f268186611d2b565b9050612f356020830185611eb1565b612f426040830184611e1b565b949350505050565b600081519050919050565b600082825260208201905092915050565b6000612f7182612f4a565b612f7b8185612f55565b9350612f8b818560208601611cf0565b612f9481611d1a565b840191505092915050565b6000608082019050612fb46000830187611e1b565b612fc16020830186611e1b565b612fce6040830185611eb1565b8181036060830152612fe08184612f66565b905095945050505050565b600081519050612ffa81611c45565b92915050565b60006020828403121561301657613015611c0f565b5b600061302484828501612feb565b91505092915050565b7f4552433732313a206d696e7420746f20746865207a65726f2061646472657373600082015250565b6000613063602083611cdf565b915061306e8261302d565b602082019050919050565b6000602082019050818103600083015261309281613056565b9050919050565b7f4552433732313a20746f6b656e20616c7265616479206d696e74656400000000600082015250565b60006130cf601c83611cdf565b91506130da82613099565b602082019050919050565b600060208201905081810360008301526130fe816130c2565b905091905056fe416e204e465420772f20494420257320686173206265656e206d696e74656420746f2025734142434445464748494a4b4c4d4e4f505152535455565758595a6162636465666768696a6b6c6d6e6f707172737475767778797a303132333435363738392b2fa26469706673582212207833262fa1fb508735227614ff2efcc1e95f5ca5bf24cadd0cc0b0faa26c886264736f6c63430008120033",
  "linkReferences": {},
  "deployedLinkReferences": {}
}